{
    "_format": "hh-sol-artifact-1",
    "contractName": "Querry",
    "sourceName": "contracts/Quester.sol",
    "abi": [
        {
            "inputs": [
                {
                    "internalType": "contract Quest",
                    "name": "_token",
                    "type": "address"
                }
            ],
            "stateMutability": "nonpayable",
            "type": "constructor"
        },
        {
            "inputs": [
                {
                    "internalType": "address",
                    "name": "",
                    "type": "address"
                }
            ],
            "name": "bounty",
            "outputs": [
                {
                    "internalType": "uint256",
                    "name": "",
                    "type": "uint256"
                }
            ],
            "stateMutability": "view",
            "type": "function"
        },
        {
            "inputs": [
                {
                    "internalType": "uint256",
                    "name": "val",
                    "type": "uint256"
                }
            ],
            "name": "checker",
            "outputs": [
                {
                    "internalType": "bool",
                    "name": "success",
                    "type": "bool"
                }
            ],
            "stateMutability": "view",
            "type": "function"
        },
        {
            "inputs": [],
            "name": "getAllCards",
            "outputs": [
                {
                    "components": [
                        {
                            "internalType": "address",
                            "name": "querrier",
                            "type": "address"
                        },
                        {
                            "internalType": "string",
                            "name": "question",
                            "type": "string"
                        },
                        {
                            "internalType": "uint256",
                            "name": "timestamp",
                            "type": "uint256"
                        },
                        {
                            "internalType": "uint256",
                            "name": "bounty",
                            "type": "uint256"
                        }
                    ],
                    "internalType": "struct Querry.Card[]",
                    "name": "",
                    "type": "tuple[]"
                }
            ],
            "stateMutability": "view",
            "type": "function"
        },
        {
            "inputs": [
                {
                    "internalType": "uint256",
                    "name": "_value",
                    "type": "uint256"
                },
                {
                    "internalType": "string",
                    "name": "_question",
                    "type": "string"
                }
            ],
            "name": "quest",
            "outputs": [],
            "stateMutability": "nonpayable",
            "type": "function"
        },
        {
            "inputs": [
                {
                    "internalType": "address",
                    "name": "",
                    "type": "address"
                }
            ],
            "name": "storedBalanceOf",
            "outputs": [
                {
                    "internalType": "uint256",
                    "name": "",
                    "type": "uint256"
                }
            ],
            "stateMutability": "view",
            "type": "function"
        },
        {
            "inputs": [],
            "name": "token",
            "outputs": [
                {
                    "internalType": "contract Quest",
                    "name": "",
                    "type": "address"
                }
            ],
            "stateMutability": "view",
            "type": "function"
        },
        {
            "inputs": [
                {
                    "internalType": "address",
                    "name": "_to",
                    "type": "address"
                },
                {
                    "internalType": "uint256",
                    "name": "_value",
                    "type": "uint256"
                }
            ],
            "name": "transferStored",
            "outputs": [],
            "stateMutability": "nonpayable",
            "type": "function"
        }
    ],
    "bytecode": "0x60806040523480156200001157600080fd5b5060405162001613380380620016138339818101604052810190620000379190620000fc565b806000806101000a81548173ffffffffffffffffffffffffffffffffffffffff021916908373ffffffffffffffffffffffffffffffffffffffff160217905550506200012e565b600080fd5b600073ffffffffffffffffffffffffffffffffffffffff82169050919050565b6000620000b08262000083565b9050919050565b6000620000c482620000a3565b9050919050565b620000d681620000b7565b8114620000e257600080fd5b50565b600081519050620000f681620000cb565b92915050565b6000602082840312156200011557620001146200007e565b5b60006200012584828501620000e5565b91505092915050565b6114d5806200013e6000396000f3fe608060405234801561001057600080fd5b506004361061007d5760003560e01c806394e05b2c1161005b57806394e05b2c146100ea578063cea135161461011a578063edaba61114610138578063fc0c546a146101685761007d565b806319f8c885146100825780632591b590146100b257806368997737146100ce575b600080fd5b61009c6004803603810190610097919061092f565b610186565b6040516100a99190610975565b60405180910390f35b6100cc60048036038101906100c791906109bc565b61019e565b005b6100e860048036038101906100e39190610b42565b610357565b005b61010460048036038101906100ff9190610b9e565b61063f565b6040516101119190610be6565b60405180910390f35b610122610726565b60405161012f9190610dc3565b60405180910390f35b610152600480360381019061014d919061092f565b610881565b60405161015f9190610975565b60405180910390f35b610170610899565b60405161017d9190610e44565b60405180910390f35b60036020528060005260406000206000915090505481565b80600260003373ffffffffffffffffffffffffffffffffffffffff1673ffffffffffffffffffffffffffffffffffffffff168152602001908152602001600020541015610220576040517f08c379a000000000000000000000000000000000000000000000000000000000815260040161021790610ebc565b60405180910390fd5b80600260003373ffffffffffffffffffffffffffffffffffffffff1673ffffffffffffffffffffffffffffffffffffffff168152602001908152602001600020600082825461026f9190610f0b565b9250508190555060008054906101000a900473ffffffffffffffffffffffffffffffffffffffff1673ffffffffffffffffffffffffffffffffffffffff1663a9059cbb83836040518363ffffffff1660e01b81526004016102d1929190610f4e565b6020604051808303816000875af11580156102f0573d6000803e3d6000fd5b505050506040513d601f19601f820116820180604052508101906103149190610fa3565b610353576040517f08c379a000000000000000000000000000000000000000000000000000000000815260040161034a9061101c565b60405180910390fd5b5050565b8160008054906101000a900473ffffffffffffffffffffffffffffffffffffffff1673ffffffffffffffffffffffffffffffffffffffff166370a08231336040518263ffffffff1660e01b81526004016103b1919061103c565b602060405180830381865afa1580156103ce573d6000803e3d6000fd5b505050506040513d601f19601f820116820180604052508101906103f2919061106c565b1015610433576040517f08c379a000000000000000000000000000000000000000000000000000000000815260040161042a906110e5565b60405180910390fd5b60008054906101000a900473ffffffffffffffffffffffffffffffffffffffff1673ffffffffffffffffffffffffffffffffffffffff1663c9db20ad33846040518363ffffffff1660e01b815260040161048e929190610f4e565b6020604051808303816000875af11580156104ad573d6000803e3d6000fd5b505050506040513d601f19601f820116820180604052508101906104d19190610fa3565b610510576040517f08c379a000000000000000000000000000000000000000000000000000000000815260040161050790611177565b60405180910390fd5b81600260003373ffffffffffffffffffffffffffffffffffffffff1673ffffffffffffffffffffffffffffffffffffffff168152602001908152602001600020600082825461055f9190611197565b92505081905550600160405180608001604052803373ffffffffffffffffffffffffffffffffffffffff16815260200183815260200142815260200184815250908060018154018082558091505060019003906000526020600020906004020160009091909190915060008201518160000160006101000a81548173ffffffffffffffffffffffffffffffffffffffff021916908373ffffffffffffffffffffffffffffffffffffffff160217905550602082015181600101908161062491906113cd565b50604082015181600201556060820151816003015550505050565b60008160008054906101000a900473ffffffffffffffffffffffffffffffffffffffff1673ffffffffffffffffffffffffffffffffffffffff166370a08231336040518263ffffffff1660e01b815260040161069b919061103c565b602060405180830381865afa1580156106b8573d6000803e3d6000fd5b505050506040513d601f19601f820116820180604052508101906106dc919061106c565b101561071d576040517f08c379a0000000000000000000000000000000000000000000000000000000008152600401610714906110e5565b60405180910390fd5b60019050919050565b60606001805480602002602001604051908101604052809291908181526020016000905b8282101561087857838290600052602060002090600402016040518060800160405290816000820160009054906101000a900473ffffffffffffffffffffffffffffffffffffffff1673ffffffffffffffffffffffffffffffffffffffff1673ffffffffffffffffffffffffffffffffffffffff1681526020016001820180546107d3906111fa565b80601f01602080910402602001604051908101604052809291908181526020018280546107ff906111fa565b801561084c5780601f106108215761010080835404028352916020019161084c565b820191906000526020600020905b81548152906001019060200180831161082f57829003601f168201915b50505050508152602001600282015481526020016003820154815250508152602001906001019061074a565b50505050905090565b60026020528060005260406000206000915090505481565b60008054906101000a900473ffffffffffffffffffffffffffffffffffffffff1681565b6000604051905090565b600080fd5b600080fd5b600073ffffffffffffffffffffffffffffffffffffffff82169050919050565b60006108fc826108d1565b9050919050565b61090c816108f1565b811461091757600080fd5b50565b60008135905061092981610903565b92915050565b600060208284031215610945576109446108c7565b5b60006109538482850161091a565b91505092915050565b6000819050919050565b61096f8161095c565b82525050565b600060208201905061098a6000830184610966565b92915050565b6109998161095c565b81146109a457600080fd5b50565b6000813590506109b681610990565b92915050565b600080604083850312156109d3576109d26108c7565b5b60006109e18582860161091a565b92505060206109f2858286016109a7565b9150509250929050565b600080fd5b600080fd5b6000601f19601f8301169050919050565b7f4e487b7100000000000000000000000000000000000000000000000000000000600052604160045260246000fd5b610a4f82610a06565b810181811067ffffffffffffffff82111715610a6e57610a6d610a17565b5b80604052505050565b6000610a816108bd565b9050610a8d8282610a46565b919050565b600067ffffffffffffffff821115610aad57610aac610a17565b5b610ab682610a06565b9050602081019050919050565b82818337600083830152505050565b6000610ae5610ae084610a92565b610a77565b905082815260208101848484011115610b0157610b00610a01565b5b610b0c848285610ac3565b509392505050565b600082601f830112610b2957610b286109fc565b5b8135610b39848260208601610ad2565b91505092915050565b60008060408385031215610b5957610b586108c7565b5b6000610b67858286016109a7565b925050602083013567ffffffffffffffff811115610b8857610b876108cc565b5b610b9485828601610b14565b9150509250929050565b600060208284031215610bb457610bb36108c7565b5b6000610bc2848285016109a7565b91505092915050565b60008115159050919050565b610be081610bcb565b82525050565b6000602082019050610bfb6000830184610bd7565b92915050565b600081519050919050565b600082825260208201905092915050565b6000819050602082019050919050565b610c36816108f1565b82525050565b600081519050919050565b600082825260208201905092915050565b60005b83811015610c76578082015181840152602081019050610c5b565b60008484015250505050565b6000610c8d82610c3c565b610c978185610c47565b9350610ca7818560208601610c58565b610cb081610a06565b840191505092915050565b610cc48161095c565b82525050565b6000608083016000830151610ce26000860182610c2d565b5060208301518482036020860152610cfa8282610c82565b9150506040830151610d0f6040860182610cbb565b506060830151610d226060860182610cbb565b508091505092915050565b6000610d398383610cca565b905092915050565b6000602082019050919050565b6000610d5982610c01565b610d638185610c0c565b935083602082028501610d7585610c1d565b8060005b85811015610db15784840389528151610d928582610d2d565b9450610d9d83610d41565b925060208a01995050600181019050610d79565b50829750879550505050505092915050565b60006020820190508181036000830152610ddd8184610d4e565b905092915050565b6000819050919050565b6000610e0a610e05610e00846108d1565b610de5565b6108d1565b9050919050565b6000610e1c82610def565b9050919050565b6000610e2e82610e11565b9050919050565b610e3e81610e23565b82525050565b6000602082019050610e596000830184610e35565b92915050565b600082825260208201905092915050565b7f4e6f7420656e6f7567682073746f7265642062616c616e636500000000000000600082015250565b6000610ea6601983610e5f565b9150610eb182610e70565b602082019050919050565b60006020820190508181036000830152610ed581610e99565b9050919050565b7f4e487b7100000000000000000000000000000000000000000000000000000000600052601160045260246000fd5b6000610f168261095c565b9150610f218361095c565b9250828203905081811115610f3957610f38610edc565b5b92915050565b610f48816108f1565b82525050565b6000604082019050610f636000830185610f3f565b610f706020830184610966565b9392505050565b610f8081610bcb565b8114610f8b57600080fd5b50565b600081519050610f9d81610f77565b92915050565b600060208284031215610fb957610fb86108c7565b5b6000610fc784828501610f8e565b91505092915050565b7f5472616e73666572206661696c65640000000000000000000000000000000000600082015250565b6000611006600f83610e5f565b915061101182610fd0565b602082019050919050565b6000602082019050818103600083015261103581610ff9565b9050919050565b60006020820190506110516000830184610f3f565b92915050565b60008151905061106681610990565b92915050565b600060208284031215611082576110816108c7565b5b600061109084828501611057565b91505092915050565b7f4e6f7420656e6f7567682042616c616e63650000000000000000000000000000600082015250565b60006110cf601283610e5f565b91506110da82611099565b602082019050919050565b600060208201905081810360008301526110fe816110c2565b9050919050565b7f2053746f7265642066756e6374696f6e206f662074686520455243323020636f60008201527f6e747261637420646964746e2070726f63656564000000000000000000000000602082015250565b6000611161603483610e5f565b915061116c82611105565b604082019050919050565b6000602082019050818103600083015261119081611154565b9050919050565b60006111a28261095c565b91506111ad8361095c565b92508282019050808211156111c5576111c4610edc565b5b92915050565b7f4e487b7100000000000000000000000000000000000000000000000000000000600052602260045260246000fd5b6000600282049050600182168061121257607f821691505b602082108103611225576112246111cb565b5b50919050565b60008190508160005260206000209050919050565b60006020601f8301049050919050565b600082821b905092915050565b60006008830261128d7fffffffffffffffffffffffffffffffffffffffffffffffffffffffffffffffff82611250565b6112978683611250565b95508019841693508086168417925050509392505050565b60006112ca6112c56112c08461095c565b610de5565b61095c565b9050919050565b6000819050919050565b6112e4836112af565b6112f86112f0826112d1565b84845461125d565b825550505050565b600090565b61130d611300565b6113188184846112db565b505050565b5b8181101561133c57611331600082611305565b60018101905061131e565b5050565b601f821115611381576113528161122b565b61135b84611240565b8101602085101561136a578190505b61137e61137685611240565b83018261131d565b50505b505050565b600082821c905092915050565b60006113a460001984600802611386565b1980831691505092915050565b60006113bd8383611393565b9150826002028217905092915050565b6113d682610c3c565b67ffffffffffffffff8111156113ef576113ee610a17565b5b6113f982546111fa565b611404828285611340565b600060209050601f8311600181146114375760008415611425578287015190505b61142f85826113b1565b865550611497565b601f1984166114458661122b565b60005b8281101561146d57848901518255600182019150602085019450602081019050611448565b8683101561148a5784890151611486601f891682611393565b8355505b6001600288020188555050505b50505050505056fea264697066735822122008232e960667b8a258428446b7ee300619f7d61c03464af58e9ec4813b32c05064736f6c63430008110033",
    "linkReferences": {},
    "deployedLinkReferences": {}
}